:020000040000FA
:08000000803102288731E62F50
:100B1A000134033402341230890B912D003208005B
:100B2A00640080010131890B962D0034F0004630B3
:100B3A007002031CA12DA32D0130A42D0030A52D78
:100B4A0008006830210099002830950008302400F8
:100B5A008C0020008C0122008C01173023008C00AD
:100B6A001F3021008C00893020009E009F010A302E
:100B7A00210097000800F40104307406031DC62DF5
:100B8A00C72DC92D0A2E0A2E740820009F00B00115
:100B9A00B1011030F0007008F3007308031DD62D60
:100BAA00D72DD92DEE2DEE2D9501C8300032890BA7
:100BBA00DB2D20001508F000F1017008B00771085C
:100BCA00B13D0130F3027308031DEC2DED2DD92D33
:100BDA00EE2D3108F1003008F0000430F136F00C47
:100BEA00890BF32D7008F2007408283E86008701ED
:100BFA00720881000130F0007008F40704307406AE
:100C0A00031D082E092EC92D0A2E080020008C1655
:100C1A00853190258631F30104307302031C162EA8
:100C2A00172E192E3D2E3D2E73082C3E8600870165
:100C3A00010885319B258631003A0319252E262E77
:100C4A002C2E20008C16853190258631322E2000DC
:100C5A008C12853190258631322E0130F1007108CF
:100C6A00F30704307302031C3B2E3C2E192E3D2E33
:100C7A00F20104307206031D432E442E462E552ED1
:100C8A00552E20008C128531902586310130F100D5
:100C9A007108F20704307206031D542E552E462E93
:100CAA0020008C128531902586310800F601F11F4B
:100CBA005F2E602E682EF009F109F00A0319F10A75
:100CCA00F601F60A682EF31F6B2E6C2E762EF209A9
:100CDA00F309F20A0319F30A0130F4007408F6065C
:100CEA00762EF701F8017008710403197D2E7E2E05
:100CFA00B32EF501F50A8B2E0130F035F10D890B73
:100D0A00822E0130F4007408F5078B2EF11F8E2E07
:100D1A008F2E812E912E912E0130F735F80D890BE9
:100D2A00922E71087302031D9C2E70087202031C16
:100D3A009F2EA02EA62E7008F2027108F33B77149C
:100D4A00A62E0130F136F00C890BA72E0130F502E0
:100D5A00031DB02EB12E912EB32EB32E7608031991
:100D6A00B72EB82EBE2EF709F809F70A0319F80AA2
:100D7A00BE2E7808F1007708F000C32E08008531EE
:100D8A00A62586318531C025863120008C12CD2ECC
:100D9A0021001710FB01F90104307906031DD62E34
:100DAA00D72ED92EA62FA62F790820009F009501AD
:100DBA0003302000B4009730890BE12EB40BE12EEA
:100DCA00003220001508B40079082C3E86008701FD
:100DDA00340881000430F0000030F1007908283E20
:100DEA00860087010108B400B5013408F20035080D
:100DFA00F30086315B26863170082000B600790838
:100E0A00243E86008701360881007908243E860040
:100E1A0087010108B400B501B409B509B40A031978
:100E2A00B50A7908283E8600870101083407B6000A
:100E3A0035080318350AB70079082C3E8600870161
:100E4A003708803A803C031D2C2F3608010203180C
:100E5A002F2F302F4D2F01302000B4003408FB070C
:100E6A007908013EB4003408FA007908283E860061
:100E7A00870179082C3E840085010003FF3A0107A7
:100E8A00B4007908203E86008701340881009B2F30
:100E9A007908283E8600870179082C3E840085015E
:100EAA000003FF3A01072000B4007908203E8600BB
:100EBA008701340881007908283E860087011030AE
:100ECA00F0000030F10079082C3E8400850100080A
:100EDA00B400B5013408F2003508F30086315B2608
:100EEA00863170082000B6007108B7001030F00093
:100EFA000030F1007908283E840085010008B80016
:100F0A00B9013808F2003908F30086315B268631C8
:100F1A007008FF3A013E200036070107BA00790837
:100F2A00283E860087013A0881009B2F0130B400D1
:100F3A003408F90704307906031DA42FA52FD92EEA
:100F4A00A62F7B08031DAA2FAB2FAD2FFA01AD2FB9
:100F5A0002307B02031CB22FB32FD82F20002108A6
:100F6A0022020318B92FBA2FC82F0230B40034084E
:100F7A00FA00200821020318C32FC42FD82FFA0120
:100F8A00FA0AD82FD82F0330B4003408FA002308FD
:100F9A0022020318D12FD22FD82F0430B4003408DC
:100FAA00FA00D82FD82F7A082000B4003408B300EA
:100FBA0086310B26863121001714CD2ECD2E803195
:100FCA00022885318D258731FD0085318E258731AF
:100FDA00BB0085318F258731BC00FA01FB01FC017A
:100FEA002030840000308500143085319525873102
:0C0FFA0020008631C42EFF340034013486
:020000040001F9
:04000E008CC9FFDFBB
:00000001FF
