:020000040000FA
:08000000803102288731DE2F58
:100CB60032340134C834FF34013464008001013118
:100CC600890B612E003423009C0133309B001E11DA
:100CD6009F119D171E121D160800F0302100990065
:100CE600742E1A1F772E782E742E792E10309500BA
:100CF60020008C0122008C01013023008C00210091
:100D06009D0160309E000F308C00083024008C005E
:100D16000A30210097008B010800F201F301003030
:100D26008400883085000008F0007308803AF100DE
:100D360080307102031DA12E70087202031CA42EBE
:100D4600A52EA72ED72ED72E3230F00072083F3EA2
:100D560086008701700881003230F0007208373E45
:100D660086008701700881003230F00072082F3E3D
:100D760086008701700881000130F2070030F33DDC
:100D860000308400883085000008F0007308803A3F
:100D9600F10080307102031DD22E70087202031C0E
:100DA600D52ED62EA72ED72E0800F4007208031DC6
:100DB600DD2EDE2EE02E422F422F7008F300730840
:100DC6002000AE000830F3007308FB007B08031D0B
:100DD600ED2EEE2EF02EFE2EFE2E0C160000AE1F71
:100DE6000C12AE350C120130FB027B08031DFC2EE3
:100DF600FD2EF02EFE2E7408F30073082000AE00C0
:100E06000830F3007308FB007B08031D0B2F0C2F23
:100E16000E2F1C2F1C2F0C160000AE1F0C12AE3509
:100E26000C120130FB027B08031D1A2F1B2F0E2FFD
:100E36001C2F7108F30073082000AE000830F30081
:100E46007308FB007B08031D292F2A2F2C2F3A2F0E
:100E56003A2F0C160000AE1F0C12AE350C120130E4
:100E6600FB027B08031D382F392F2C2F3A2F013018
:100E7600F2027208031D402F412FE02E422F080078
:100E860086317026873186316626873120008C129E
:100E9600E43000320032890B4C2F00320032F80168
:100EA600863190268731572F2000911E5B2F5C2FAD
:100EB600642FA801A80A23001908F5007508F9008F
:100EC600642F7908031D682F692F7E2FFF30F500E8
:100ED6007508F000FF30F6007608F1000030840057
:100EE600883085000008F7007708F200FF30863169
:100EF600D82687317E2F7903031D822F832F922FC9
:100F0600F001F10100308400883085000008F5000A
:100F16007508F200FF308631D8268731922F0230CD
:100F26007906031D972F982FAA2FFF30F500750815
:100F3600F000F10100308400883085000008F600DA
:100F46007608F20000308631D8268731AA2F043081
:100F56007906031DAF2FB02FC22FF001FF30F50029
:100F66007508F10000308400883085000008F6001E
:100F76007608F20000308631D8268731C22F083035
:100F86007906031DC72FC82F572FF001FF30F50034
:100F96007508F10000308400883085000008F600EE
:100FA6007608F200FF308631D8268731572F572F23
:100FB600572F8031022886315B268731FC00863127
:100FC6005C268731FD0086315D268731CB00863170
:100FD6005E268731CC0086315F268731CD00F90148
:100FE600FA01FB0120308400003085002B30863169
:0C0FF6006026873120008731432F08342B
:020000040001F9
:04000E008CC9FFDFBB
:00000001FF
